{
    "_format": "hh-sol-artifact-1",
    "contractName": "Supplychain",
    "sourceName": "contracts/SupplyChain.sol",
    "abi": [
        {
            "inputs": [
                {
                    "internalType": "uint256",
                    "name": "pid",
                    "type": "uint256"
                },
                {
                    "internalType": "string",
                    "name": "location",
                    "type": "string"
                },
                {
                    "internalType": "uint256",
                    "name": "timestamp",
                    "type": "uint256"
                },
                {
                    "internalType": "uint256",
                    "name": "temp",
                    "type": "uint256"
                },
                {
                    "internalType": "uint256",
                    "name": "humidity",
                    "type": "uint256"
                }
            ],
            "name": "AddData",
            "outputs": [],
            "stateMutability": "payable",
            "type": "function"
        },
        {
            "inputs": [
                {
                    "internalType": "string",
                    "name": "name",
                    "type": "string"
                },
                {
                    "internalType": "string",
                    "name": "manufacturer",
                    "type": "string"
                },
                {
                    "internalType": "string",
                    "name": "total_quantity",
                    "type": "string"
                },
                {
                    "internalType": "string",
                    "name": "reqtemp",
                    "type": "string"
                },
                {
                    "internalType": "string",
                    "name": "reqhumid",
                    "type": "string"
                },
                {
                    "internalType": "string",
                    "name": "location",
                    "type": "string"
                },
                {
                    "internalType": "string",
                    "name": "destination",
                    "type": "string"
                }
            ],
            "name": "AddProduct",
            "outputs": [],
            "stateMutability": "payable",
            "type": "function"
        },
        {
            "inputs": [],
            "stateMutability": "nonpayable",
            "type": "constructor"
        },
        {
            "inputs": [
                {
                    "internalType": "uint256",
                    "name": "",
                    "type": "uint256"
                },
                {
                    "internalType": "uint256",
                    "name": "",
                    "type": "uint256"
                }
            ],
            "name": "data",
            "outputs": [
                {
                    "internalType": "uint256",
                    "name": "pid",
                    "type": "uint256"
                },
                {
                    "internalType": "string",
                    "name": "location",
                    "type": "string"
                },
                {
                    "internalType": "uint256",
                    "name": "timestamp",
                    "type": "uint256"
                },
                {
                    "internalType": "uint256",
                    "name": "temp",
                    "type": "uint256"
                },
                {
                    "internalType": "uint256",
                    "name": "humidity",
                    "type": "uint256"
                }
            ],
            "stateMutability": "view",
            "type": "function"
        },
        {
            "inputs": [
                {
                    "internalType": "uint256",
                    "name": "",
                    "type": "uint256"
                }
            ],
            "name": "Data_list",
            "outputs": [
                {
                    "internalType": "uint256",
                    "name": "pid",
                    "type": "uint256"
                },
                {
                    "internalType": "string",
                    "name": "location",
                    "type": "string"
                },
                {
                    "internalType": "uint256",
                    "name": "timestamp",
                    "type": "uint256"
                },
                {
                    "internalType": "uint256",
                    "name": "temp",
                    "type": "uint256"
                },
                {
                    "internalType": "uint256",
                    "name": "humidity",
                    "type": "uint256"
                }
            ],
            "stateMutability": "view",
            "type": "function"
        },
        {
            "inputs": [
                {
                    "internalType": "uint256",
                    "name": "id",
                    "type": "uint256"
                }
            ],
            "name": "getProductData",
            "outputs": [
                {
                    "components": [
                        {
                            "internalType": "uint256",
                            "name": "pid",
                            "type": "uint256"
                        },
                        {
                            "internalType": "string",
                            "name": "location",
                            "type": "string"
                        },
                        {
                            "internalType": "uint256",
                            "name": "timestamp",
                            "type": "uint256"
                        },
                        {
                            "internalType": "uint256",
                            "name": "temp",
                            "type": "uint256"
                        },
                        {
                            "internalType": "uint256",
                            "name": "humidity",
                            "type": "uint256"
                        }
                    ],
                    "internalType": "struct Supplychain.Data[]",
                    "name": "",
                    "type": "tuple[]"
                }
            ],
            "stateMutability": "view",
            "type": "function"
        },
        {
            "inputs": [],
            "name": "getProducts",
            "outputs": [
                {
                    "components": [
                        {
                            "internalType": "uint256",
                            "name": "id",
                            "type": "uint256"
                        },
                        {
                            "internalType": "string",
                            "name": "name",
                            "type": "string"
                        },
                        {
                            "internalType": "string",
                            "name": "manufacturer",
                            "type": "string"
                        },
                        {
                            "internalType": "string",
                            "name": "total_quantity",
                            "type": "string"
                        },
                        {
                            "internalType": "string",
                            "name": "reqtemp",
                            "type": "string"
                        },
                        {
                            "internalType": "string",
                            "name": "reqhumid",
                            "type": "string"
                        },
                        {
                            "internalType": "string",
                            "name": "location",
                            "type": "string"
                        },
                        {
                            "internalType": "string",
                            "name": "destination",
                            "type": "string"
                        },
                        {
                            "internalType": "uint256",
                            "name": "timestamp",
                            "type": "uint256"
                        }
                    ],
                    "internalType": "struct Supplychain.Product[]",
                    "name": "",
                    "type": "tuple[]"
                }
            ],
            "stateMutability": "view",
            "type": "function"
        },
        {
            "inputs": [
                {
                    "internalType": "uint256",
                    "name": "",
                    "type": "uint256"
                }
            ],
            "name": "products",
            "outputs": [
                {
                    "internalType": "uint256",
                    "name": "id",
                    "type": "uint256"
                },
                {
                    "internalType": "string",
                    "name": "name",
                    "type": "string"
                },
                {
                    "internalType": "string",
                    "name": "manufacturer",
                    "type": "string"
                },
                {
                    "internalType": "string",
                    "name": "total_quantity",
                    "type": "string"
                },
                {
                    "internalType": "string",
                    "name": "reqtemp",
                    "type": "string"
                },
                {
                    "internalType": "string",
                    "name": "reqhumid",
                    "type": "string"
                },
                {
                    "internalType": "string",
                    "name": "location",
                    "type": "string"
                },
                {
                    "internalType": "string",
                    "name": "destination",
                    "type": "string"
                },
                {
                    "internalType": "uint256",
                    "name": "timestamp",
                    "type": "uint256"
                }
            ],
            "stateMutability": "view",
            "type": "function"
        },
        {
            "inputs": [
                {
                    "internalType": "uint256",
                    "name": "",
                    "type": "uint256"
                }
            ],
            "name": "products_list",
            "outputs": [
                {
                    "internalType": "uint256",
                    "name": "id",
                    "type": "uint256"
                },
                {
                    "internalType": "string",
                    "name": "name",
                    "type": "string"
                },
                {
                    "internalType": "string",
                    "name": "manufacturer",
                    "type": "string"
                },
                {
                    "internalType": "string",
                    "name": "total_quantity",
                    "type": "string"
                },
                {
                    "internalType": "string",
                    "name": "reqtemp",
                    "type": "string"
                },
                {
                    "internalType": "string",
                    "name": "reqhumid",
                    "type": "string"
                },
                {
                    "internalType": "string",
                    "name": "location",
                    "type": "string"
                },
                {
                    "internalType": "string",
                    "name": "destination",
                    "type": "string"
                },
                {
                    "internalType": "uint256",
                    "name": "timestamp",
                    "type": "uint256"
                }
            ],
            "stateMutability": "view",
            "type": "function"
        }
    ],
    "bytecode": "6080604052600060015534801561001557600080fd5b50336000806101000a81548173ffffffffffffffffffffffffffffffffffffffff021916908373ffffffffffffffffffffffffffffffffffffffff160217905550612346806100656000396000f3fe60806040526004361061007b5760003560e01c80637acc0b201161004e5780637acc0b201461013a578063c29b2f201461017f578063d6d0be9f146101aa578063f7aed773146101e75761007b565b80632aaad0ac146100805780635173bd1e1461009c5780635c49a952146100dd5780637109ad82146100f9575b600080fd5b61009a60048036038101906100959190611727565b61022c565b005b3480156100a857600080fd5b506100c360048036038101906100be91906117be565b610386565b6040516100d495949392919061188c565b60405180910390f35b6100f760048036038101906100f291906118e6565b610461565b005b34801561010557600080fd5b50610120600480360381019061011b9190611a4c565b61070f565b60405161013195949392919061188c565b60405180910390f35b34801561014657600080fd5b50610161600480360381019061015c9190611a4c565b6107dd565b60405161017699989796959493929190611a79565b60405180910390f35b34801561018b57600080fd5b50610194610be3565b6040516101a19190611d41565b60405180910390f35b3480156101b657600080fd5b506101d160048036038101906101cc9190611a4c565b611055565b6040516101de9190611e9b565b60405180910390f35b3480156101f357600080fd5b5061020e60048036038101906102099190611a4c565b611181565b60405161022399989796959493929190611a79565b60405180910390f35b6040518060a0016040528086815260200185815260200184815260200183815260200182815250600d60008201518160000155602082015181600101908161027491906120c9565b5060408201518160020155606082015181600301556080820151816004015590505060136000868152602001908152602001600020600d908060018154018082558091505060019003906000526020600020906005020160009091909190915060008201548160000155600182018160010190816102f291906121b1565b506002820154816002015560038201548160030155600482015481600401555050600c600d9080600181540180825580915050600190039060005260206000209060050201600090919091909150600082015481600001556001820181600101908161035e91906121b1565b5060028201548160020155600382015481600301556004820154816004015550505050505050565b601360205281600052604060002081815481106103a257600080fd5b9060005260206000209060050201600091509150508060000154908060010180546103cc90611eec565b80601f01602080910402602001604051908101604052809291908181526020018280546103f890611eec565b80156104455780601f1061041a57610100808354040283529160200191610445565b820191906000526020600020905b81548152906001019060200180831161042857829003601f168201915b5050505050908060020154908060030154908060040154905085565b60405180610120016040528060015481526020018881526020018781526020018681526020018581526020018481526020018381526020018281526020014281525060036000820151816000015560208201518160010190816104c491906120c9565b5060408201518160020190816104da91906120c9565b5060608201518160030190816104f091906120c9565b50608082015181600401908161050691906120c9565b5060a082015181600501908161051c91906120c9565b5060c082015181600601908161053291906120c9565b5060e082015181600701908161054891906120c9565b5061010082015181600801559050506003601260006001548152602001908152602001600020600082015481600001556001820181600101908161058c91906121b1565b50600282018160020190816105a191906121b1565b50600382018160030190816105b691906121b1565b50600482018160040190816105cb91906121b1565b50600582018160050190816105e091906121b1565b50600682018160060190816105f591906121b1565b506007820181600701908161060a91906121b1565b5060088201548160080155905050600260039080600181540180825580915050600190039060005260206000209060090201600090919091909150600082015481600001556001820181600101908161066391906121b1565b506002820181600201908161067891906121b1565b506003820181600301908161068d91906121b1565b50600482018160040190816106a291906121b1565b50600582018160050190816106b791906121b1565b50600682018160060190816106cc91906121b1565b50600782018160070190816106e191906121b1565b5060088201548160080155505060016000815480929190610701906122c8565b919050555050505050505050565b600c818154811061071f57600080fd5b906000526020600020906005020160009150905080600001549080600101805461074890611eec565b80601f016020809104026020016040519081016040528092919081815260200182805461077490611eec565b80156107c15780601f10610796576101008083540402835291602001916107c1565b820191906000526020600020905b8154815290600101906020018083116107a457829003601f168201915b5050505050908060020154908060030154908060040154905085565b601260205280600052604060002060009150905080600001549080600101805461080690611eec565b80601f016020809104026020016040519081016040528092919081815260200182805461083290611eec565b801561087f5780601f106108545761010080835404028352916020019161087f565b820191906000526020600020905b81548152906001019060200180831161086257829003601f168201915b50505050509080600201805461089490611eec565b80601f01602080910402602001604051908101604052809291908181526020018280546108c090611eec565b801561090d5780601f106108e25761010080835404028352916020019161090d565b820191906000526020600020905b8154815290600101906020018083116108f057829003601f168201915b50505050509080600301805461092290611eec565b80601f016020809104026020016040519081016040528092919081815260200182805461094e90611eec565b801561099b5780601f106109705761010080835404028352916020019161099b565b820191906000526020600020905b81548152906001019060200180831161097e57829003601f168201915b5050505050908060040180546109b090611eec565b80601f01602080910402602001604051908101604052809291908181526020018280546109dc90611eec565b8015610a295780601f106109fe57610100808354040283529160200191610a29565b820191906000526020600020905b815481529060010190602001808311610a0c57829003601f168201915b505050505090806005018054610a3e90611eec565b80601f0160208091040260200160405190810160405280929190818152602001828054610a6a90611eec565b8015610ab75780601f10610a8c57610100808354040283529160200191610ab7565b820191906000526020600020905b815481529060010190602001808311610a9a57829003601f168201915b505050505090806006018054610acc90611eec565b80601f0160208091040260200160405190810160405280929190818152602001828054610af890611eec565b8015610b455780601f10610b1a57610100808354040283529160200191610b45565b820191906000526020600020905b815481529060010190602001808311610b2857829003601f168201915b505050505090806007018054610b5a90611eec565b80601f0160208091040260200160405190810160405280929190818152602001828054610b8690611eec565b8015610bd35780601f10610ba857610100808354040283529160200191610bd3565b820191906000526020600020905b815481529060010190602001808311610bb657829003601f168201915b5050505050908060080154905089565b60606002805480602002602001604051908101604052809291908181526020016000905b8282101561104c57838290600052602060002090600902016040518061012001604052908160008201548152602001600182018054610c4590611eec565b80601f0160208091040260200160405190810160405280929190818152602001828054610c7190611eec565b8015610cbe5780601f10610c9357610100808354040283529160200191610cbe565b820191906000526020600020905b815481529060010190602001808311610ca157829003601f168201915b50505050508152602001600282018054610cd790611eec565b80601f0160208091040260200160405190810160405280929190818152602001828054610d0390611eec565b8015610d505780601f10610d2557610100808354040283529160200191610d50565b820191906000526020600020905b815481529060010190602001808311610d3357829003601f168201915b50505050508152602001600382018054610d6990611eec565b80601f0160208091040260200160405190810160405280929190818152602001828054610d9590611eec565b8015610de25780601f10610db757610100808354040283529160200191610de2565b820191906000526020600020905b815481529060010190602001808311610dc557829003601f168201915b50505050508152602001600482018054610dfb90611eec565b80601f0160208091040260200160405190810160405280929190818152602001828054610e2790611eec565b8015610e745780601f10610e4957610100808354040283529160200191610e74565b820191906000526020600020905b815481529060010190602001808311610e5757829003601f168201915b50505050508152602001600582018054610e8d90611eec565b80601f0160208091040260200160405190810160405280929190818152602001828054610eb990611eec565b8015610f065780601f10610edb57610100808354040283529160200191610f06565b820191906000526020600020905b815481529060010190602001808311610ee957829003601f168201915b50505050508152602001600682018054610f1f90611eec565b80601f0160208091040260200160405190810160405280929190818152602001828054610f4b90611eec565b8015610f985780601f10610f6d57610100808354040283529160200191610f98565b820191906000526020600020905b815481529060010190602001808311610f7b57829003601f168201915b50505050508152602001600782018054610fb190611eec565b80601f0160208091040260200160405190810160405280929190818152602001828054610fdd90611eec565b801561102a5780601f10610fff5761010080835404028352916020019161102a565b820191906000526020600020905b81548152906001019060200180831161100d57829003601f168201915b5050505050815260200160088201548152505081526020019060010190610c07565b50505050905090565b606060136000838152602001908152602001600020805480602002602001604051908101604052809291908181526020016000905b8282101561117657838290600052602060002090600502016040518060a0016040529081600082015481526020016001820180546110c790611eec565b80601f01602080910402602001604051908101604052809291908181526020018280546110f390611eec565b80156111405780601f1061111557610100808354040283529160200191611140565b820191906000526020600020905b81548152906001019060200180831161112357829003601f168201915b5050505050815260200160028201548152602001600382015481526020016004820154815250508152602001906001019061108a565b505050509050919050565b6002818154811061119157600080fd5b90600052602060002090600902016000915090508060000154908060010180546111ba90611eec565b80601f01602080910402602001604051908101604052809291908181526020018280546111e690611eec565b80156112335780601f1061120857610100808354040283529160200191611233565b820191906000526020600020905b81548152906001019060200180831161121657829003601f168201915b50505050509080600201805461124890611eec565b80601f016020809104026020016040519081016040528092919081815260200182805461127490611eec565b80156112c15780601f10611296576101008083540402835291602001916112c1565b820191906000526020600020905b8154815290600101906020018083116112a457829003601f168201915b5050505050908060030180546112d690611eec565b80601f016020809104026020016040519081016040528092919081815260200182805461130290611eec565b801561134f5780601f106113245761010080835404028352916020019161134f565b820191906000526020600020905b81548152906001019060200180831161133257829003601f168201915b50505050509080600401805461136490611eec565b80601f016020809104026020016040519081016040528092919081815260200182805461139090611eec565b80156113dd5780601f106113b2576101008083540402835291602001916113dd565b820191906000526020600020905b8154815290600101906020018083116113c057829003601f168201915b5050505050908060050180546113f290611eec565b80601f016020809104026020016040519081016040528092919081815260200182805461141e90611eec565b801561146b5780601f106114405761010080835404028352916020019161146b565b820191906000526020600020905b81548152906001019060200180831161144e57829003601f168201915b50505050509080600601805461148090611eec565b80601f01602080910402602001604051908101604052809291908181526020018280546114ac90611eec565b80156114f95780601f106114ce576101008083540402835291602001916114f9565b820191906000526020600020905b8154815290600101906020018083116114dc57829003601f168201915b50505050509080600701805461150e90611eec565b80601f016020809104026020016040519081016040528092919081815260200182805461153a90611eec565b80156115875780601f1061155c57610100808354040283529160200191611587565b820191906000526020600020905b81548152906001019060200180831161156a57829003601f168201915b5050505050908060080154905089565b6000604051905090565b600080fd5b600080fd5b6000819050919050565b6115be816115ab565b81146115c957600080fd5b50565b6000813590506115db816115b5565b92915050565b600080fd5b600080fd5b6000601f19601f8301169050919050565b7f4e487b7100000000000000000000000000000000000000000000000000000000600052604160045260246000fd5b611634826115eb565b810181811067ffffffffffffffff82111715611653576116526115fc565b5b80604052505050565b6000611666611597565b9050611672828261162b565b919050565b600067ffffffffffffffff821115611692576116916115fc565b5b61169b826115eb565b9050602081019050919050565b82818337600083830152505050565b60006116ca6116c584611677565b61165c565b9050828152602081018484840111156116e6576116e56115e6565b5b6116f18482856116a8565b509392505050565b600082601f83011261170e5761170d6115e1565b5b813561171e8482602086016116b7565b91505092915050565b600080600080600060a08688031215611743576117426115a1565b5b6000611751888289016115cc565b955050602086013567ffffffffffffffff811115611772576117716115a6565b5b61177e888289016116f9565b945050604061178f888289016115cc565b93505060606117a0888289016115cc565b92505060806117b1888289016115cc565b9150509295509295909350565b600080604083850312156117d5576117d46115a1565b5b60006117e3858286016115cc565b92505060206117f4858286016115cc565b9150509250929050565b611807816115ab565b82525050565b600081519050919050565b600082825260208201905092915050565b60005b8381101561184757808201518184015260208101905061182c565b60008484015250505050565b600061185e8261180d565b6118688185611818565b9350611878818560208601611829565b611881816115eb565b840191505092915050565b600060a0820190506118a160008301886117fe565b81810360208301526118b38187611853565b90506118c260408301866117fe565b6118cf60608301856117fe565b6118dc60808301846117fe565b9695505050505050565b600080600080600080600060e0888a031215611905576119046115a1565b5b600088013567ffffffffffffffff811115611923576119226115a6565b5b61192f8a828b016116f9565b975050602088013567ffffffffffffffff8111156119505761194f6115a6565b5b61195c8a828b016116f9565b965050604088013567ffffffffffffffff81111561197d5761197c6115a6565b5b6119898a828b016116f9565b955050606088013567ffffffffffffffff8111156119aa576119a96115a6565b5b6119b68a828b016116f9565b945050608088013567ffffffffffffffff8111156119d7576119d66115a6565b5b6119e38a828b016116f9565b93505060a088013567ffffffffffffffff811115611a0457611a036115a6565b5b611a108a828b016116f9565b92505060c088013567ffffffffffffffff811115611a3157611a306115a6565b5b611a3d8a828b016116f9565b91505092959891949750929550565b600060208284031215611a6257611a616115a1565b5b6000611a70848285016115cc565b91505092915050565b600061012082019050611a8f600083018c6117fe565b8181036020830152611aa1818b611853565b90508181036040830152611ab5818a611853565b90508181036060830152611ac98189611853565b90508181036080830152611add8188611853565b905081810360a0830152611af18187611853565b905081810360c0830152611b058186611853565b905081810360e0830152611b198185611853565b9050611b296101008301846117fe565b9a9950505050505050505050565b600081519050919050565b600082825260208201905092915050565b6000819050602082019050919050565b611b6c816115ab565b82525050565b600082825260208201905092915050565b6000611b8e8261180d565b611b988185611b72565b9350611ba8818560208601611829565b611bb1816115eb565b840191505092915050565b600061012083016000830151611bd56000860182611b63565b5060208301518482036020860152611bed8282611b83565b91505060408301518482036040860152611c078282611b83565b91505060608301518482036060860152611c218282611b83565b91505060808301518482036080860152611c3b8282611b83565b91505060a083015184820360a0860152611c558282611b83565b91505060c083015184820360c0860152611c6f8282611b83565b91505060e083015184820360e0860152611c898282611b83565b915050610100830151611ca0610100860182611b63565b508091505092915050565b6000611cb78383611bbc565b905092915050565b6000602082019050919050565b6000611cd782611b37565b611ce18185611b42565b935083602082028501611cf385611b53565b8060005b85811015611d2f5784840389528151611d108582611cab565b9450611d1b83611cbf565b925060208a01995050600181019050611cf7565b50829750879550505050505092915050565b60006020820190508181036000830152611d5b8184611ccc565b905092915050565b600081519050919050565b600082825260208201905092915050565b6000819050602082019050919050565b600060a083016000830151611da76000860182611b63565b5060208301518482036020860152611dbf8282611b83565b9150506040830151611dd46040860182611b63565b506060830151611de76060860182611b63565b506080830151611dfa6080860182611b63565b508091505092915050565b6000611e118383611d8f565b905092915050565b6000602082019050919050565b6000611e3182611d63565b611e3b8185611d6e565b935083602082028501611e4d85611d7f565b8060005b85811015611e895784840389528151611e6a8582611e05565b9450611e7583611e19565b925060208a01995050600181019050611e51565b50829750879550505050505092915050565b60006020820190508181036000830152611eb58184611e26565b905092915050565b7f4e487b7100000000000000000000000000000000000000000000000000000000600052602260045260246000fd5b60006002820490506001821680611f0457607f821691505b602082108103611f1757611f16611ebd565b5b50919050565b60008190508160005260206000209050919050565b60006020601f8301049050919050565b600082821b905092915050565b600060088302611f7f7fffffffffffffffffffffffffffffffffffffffffffffffffffffffffffffffff82611f42565b611f898683611f42565b95508019841693508086168417925050509392505050565b6000819050919050565b6000611fc6611fc1611fbc846115ab565b611fa1565b6115ab565b9050919050565b6000819050919050565b611fe083611fab565b611ff4611fec82611fcd565b848454611f4f565b825550505050565b600090565b612009611ffc565b612014818484611fd7565b505050565b5b818110156120385761202d600082612001565b60018101905061201a565b5050565b601f82111561207d5761204e81611f1d565b61205784611f32565b81016020851015612066578190505b61207a61207285611f32565b830182612019565b50505b505050565b600082821c905092915050565b60006120a060001984600802612082565b1980831691505092915050565b60006120b9838361208f565b9150826002028217905092915050565b6120d28261180d565b67ffffffffffffffff8111156120eb576120ea6115fc565b5b6120f58254611eec565b61210082828561203c565b600060209050601f8311600181146121335760008415612121578287015190505b61212b85826120ad565b865550612193565b601f19841661214186611f1d565b60005b8281101561216957848901518255600182019150602085019450602081019050612144565b868310156121865784890151612182601f89168261208f565b8355505b6001600288020188555050505b505050505050565b6000815490506121aa81611eec565b9050919050565b8181036121bf575050612297565b6121c88261219b565b67ffffffffffffffff8111156121e1576121e06115fc565b5b6121eb8254611eec565b6121f682828561203c565b6000601f8311600181146122255760008415612213578287015490505b61221d85826120ad565b865550612290565b601f19841661223387611f1d565b965061223e86611f1d565b60005b8281101561226657848901548255600182019150600185019450602081019050612241565b86831015612283578489015461227f601f89168261208f565b8355505b6001600288020188555050505b5050505050505b565b7f4e487b7100000000000000000000000000000000000000000000000000000000600052601160045260246000fd5b60006122d3826115ab565b91507fffffffffffffffffffffffffffffffffffffffffffffffffffffffffffffffff820361230557612304612299565b5b60018201905091905056fea2646970667358221220e25cfd129bbe431a9c01af1bb20c33e93024678934b8137c70f720313ed1d52b64736f6c63430008120033",
    "linkReferences": {},
    "deployedLinkReferences": {}
}